{
  "_format": "hh3-artifact-1",
  "contractName": "NFT",
  "sourceName": "contracts/NFT.sol",
  "abi": [
    {
      "inputs": [
        {
          "internalType": "string",
          "name": "name_",
          "type": "string"
        },
        {
          "internalType": "string",
          "name": "symbol_",
          "type": "string"
        },
        {
          "internalType": "address",
          "name": "_paymentToken",
          "type": "address"
        },
        {
          "internalType": "uint256",
          "name": "_mintFee",
          "type": "uint256"
        },
        {
          "internalType": "string",
          "name": "_baseTokenURI",
          "type": "string"
        }
      ],
      "stateMutability": "nonpayable",
      "type": "constructor"
    },
    {
      "inputs": [
        {
          "internalType": "address",
          "name": "sender",
          "type": "address"
        },
        {
          "internalType": "uint256",
          "name": "tokenId",
          "type": "uint256"
        },
        {
          "internalType": "address",
          "name": "owner",
          "type": "address"
        }
      ],
      "name": "ERC721IncorrectOwner",
      "type": "error"
    },
    {
      "inputs": [
        {
          "internalType": "address",
          "name": "operator",
          "type": "address"
        },
        {
          "internalType": "uint256",
          "name": "tokenId",
          "type": "uint256"
        }
      ],
      "name": "ERC721InsufficientApproval",
      "type": "error"
    },
    {
      "inputs": [
        {
          "internalType": "address",
          "name": "approver",
          "type": "address"
        }
      ],
      "name": "ERC721InvalidApprover",
      "type": "error"
    },
    {
      "inputs": [
        {
          "internalType": "address",
          "name": "operator",
          "type": "address"
        }
      ],
      "name": "ERC721InvalidOperator",
      "type": "error"
    },
    {
      "inputs": [
        {
          "internalType": "address",
          "name": "owner",
          "type": "address"
        }
      ],
      "name": "ERC721InvalidOwner",
      "type": "error"
    },
    {
      "inputs": [
        {
          "internalType": "address",
          "name": "receiver",
          "type": "address"
        }
      ],
      "name": "ERC721InvalidReceiver",
      "type": "error"
    },
    {
      "inputs": [
        {
          "internalType": "address",
          "name": "sender",
          "type": "address"
        }
      ],
      "name": "ERC721InvalidSender",
      "type": "error"
    },
    {
      "inputs": [
        {
          "internalType": "uint256",
          "name": "tokenId",
          "type": "uint256"
        }
      ],
      "name": "ERC721NonexistentToken",
      "type": "error"
    },
    {
      "inputs": [
        {
          "internalType": "address",
          "name": "owner",
          "type": "address"
        }
      ],
      "name": "OwnableInvalidOwner",
      "type": "error"
    },
    {
      "inputs": [
        {
          "internalType": "address",
          "name": "account",
          "type": "address"
        }
      ],
      "name": "OwnableUnauthorizedAccount",
      "type": "error"
    },
    {
      "anonymous": false,
      "inputs": [
        {
          "indexed": true,
          "internalType": "address",
          "name": "owner",
          "type": "address"
        },
        {
          "indexed": true,
          "internalType": "address",
          "name": "approved",
          "type": "address"
        },
        {
          "indexed": true,
          "internalType": "uint256",
          "name": "tokenId",
          "type": "uint256"
        }
      ],
      "name": "Approval",
      "type": "event"
    },
    {
      "anonymous": false,
      "inputs": [
        {
          "indexed": true,
          "internalType": "address",
          "name": "owner",
          "type": "address"
        },
        {
          "indexed": true,
          "internalType": "address",
          "name": "operator",
          "type": "address"
        },
        {
          "indexed": false,
          "internalType": "bool",
          "name": "approved",
          "type": "bool"
        }
      ],
      "name": "ApprovalForAll",
      "type": "event"
    },
    {
      "anonymous": false,
      "inputs": [
        {
          "indexed": false,
          "internalType": "uint256",
          "name": "_fromTokenId",
          "type": "uint256"
        },
        {
          "indexed": false,
          "internalType": "uint256",
          "name": "_toTokenId",
          "type": "uint256"
        }
      ],
      "name": "BatchMetadataUpdate",
      "type": "event"
    },
    {
      "anonymous": false,
      "inputs": [
        {
          "indexed": false,
          "internalType": "uint256",
          "name": "_tokenId",
          "type": "uint256"
        }
      ],
      "name": "MetadataUpdate",
      "type": "event"
    },
    {
      "anonymous": false,
      "inputs": [
        {
          "indexed": true,
          "internalType": "address",
          "name": "owner",
          "type": "address"
        },
        {
          "indexed": false,
          "internalType": "uint256",
          "name": "tokenId",
          "type": "uint256"
        }
      ],
      "name": "NFTMinted",
      "type": "event"
    },
    {
      "anonymous": false,
      "inputs": [
        {
          "indexed": true,
          "internalType": "address",
          "name": "from",
          "type": "address"
        },
        {
          "indexed": true,
          "internalType": "address",
          "name": "to",
          "type": "address"
        },
        {
          "indexed": false,
          "internalType": "uint256",
          "name": "tokenId",
          "type": "uint256"
        }
      ],
      "name": "NFTTransferred",
      "type": "event"
    },
    {
      "anonymous": false,
      "inputs": [
        {
          "indexed": true,
          "internalType": "address",
          "name": "previousOwner",
          "type": "address"
        },
        {
          "indexed": true,
          "internalType": "address",
          "name": "newOwner",
          "type": "address"
        }
      ],
      "name": "OwnershipTransferred",
      "type": "event"
    },
    {
      "anonymous": false,
      "inputs": [
        {
          "indexed": true,
          "internalType": "address",
          "name": "from",
          "type": "address"
        },
        {
          "indexed": true,
          "internalType": "address",
          "name": "to",
          "type": "address"
        },
        {
          "indexed": true,
          "internalType": "uint256",
          "name": "tokenId",
          "type": "uint256"
        }
      ],
      "name": "Transfer",
      "type": "event"
    },
    {
      "inputs": [
        {
          "internalType": "address",
          "name": "to",
          "type": "address"
        },
        {
          "internalType": "uint256",
          "name": "tokenId",
          "type": "uint256"
        }
      ],
      "name": "approve",
      "outputs": [],
      "stateMutability": "nonpayable",
      "type": "function"
    },
    {
      "inputs": [
        {
          "internalType": "address",
          "name": "owner",
          "type": "address"
        }
      ],
      "name": "balanceOf",
      "outputs": [
        {
          "internalType": "uint256",
          "name": "",
          "type": "uint256"
        }
      ],
      "stateMutability": "view",
      "type": "function"
    },
    {
      "inputs": [
        {
          "internalType": "uint256",
          "name": "tokenId",
          "type": "uint256"
        }
      ],
      "name": "getApproved",
      "outputs": [
        {
          "internalType": "address",
          "name": "",
          "type": "address"
        }
      ],
      "stateMutability": "view",
      "type": "function"
    },
    {
      "inputs": [
        {
          "internalType": "address",
          "name": "owner",
          "type": "address"
        },
        {
          "internalType": "address",
          "name": "operator",
          "type": "address"
        }
      ],
      "name": "isApprovedForAll",
      "outputs": [
        {
          "internalType": "bool",
          "name": "",
          "type": "bool"
        }
      ],
      "stateMutability": "view",
      "type": "function"
    },
    {
      "inputs": [],
      "name": "mint",
      "outputs": [],
      "stateMutability": "nonpayable",
      "type": "function"
    },
    {
      "inputs": [],
      "name": "mintFee",
      "outputs": [
        {
          "internalType": "uint256",
          "name": "",
          "type": "uint256"
        }
      ],
      "stateMutability": "view",
      "type": "function"
    },
    {
      "inputs": [],
      "name": "name",
      "outputs": [
        {
          "internalType": "string",
          "name": "",
          "type": "string"
        }
      ],
      "stateMutability": "view",
      "type": "function"
    },
    {
      "inputs": [],
      "name": "owner",
      "outputs": [
        {
          "internalType": "address",
          "name": "",
          "type": "address"
        }
      ],
      "stateMutability": "view",
      "type": "function"
    },
    {
      "inputs": [
        {
          "internalType": "uint256",
          "name": "tokenId",
          "type": "uint256"
        }
      ],
      "name": "ownerOf",
      "outputs": [
        {
          "internalType": "address",
          "name": "",
          "type": "address"
        }
      ],
      "stateMutability": "view",
      "type": "function"
    },
    {
      "inputs": [],
      "name": "paymentToken",
      "outputs": [
        {
          "internalType": "contract IERC20",
          "name": "",
          "type": "address"
        }
      ],
      "stateMutability": "view",
      "type": "function"
    },
    {
      "inputs": [],
      "name": "renounceOwnership",
      "outputs": [],
      "stateMutability": "nonpayable",
      "type": "function"
    },
    {
      "inputs": [
        {
          "internalType": "address",
          "name": "from",
          "type": "address"
        },
        {
          "internalType": "address",
          "name": "to",
          "type": "address"
        },
        {
          "internalType": "uint256",
          "name": "tokenId",
          "type": "uint256"
        }
      ],
      "name": "safeTransferFrom",
      "outputs": [],
      "stateMutability": "nonpayable",
      "type": "function"
    },
    {
      "inputs": [
        {
          "internalType": "address",
          "name": "from",
          "type": "address"
        },
        {
          "internalType": "address",
          "name": "to",
          "type": "address"
        },
        {
          "internalType": "uint256",
          "name": "tokenId",
          "type": "uint256"
        },
        {
          "internalType": "bytes",
          "name": "data",
          "type": "bytes"
        }
      ],
      "name": "safeTransferFrom",
      "outputs": [],
      "stateMutability": "nonpayable",
      "type": "function"
    },
    {
      "inputs": [
        {
          "internalType": "address",
          "name": "operator",
          "type": "address"
        },
        {
          "internalType": "bool",
          "name": "approved",
          "type": "bool"
        }
      ],
      "name": "setApprovalForAll",
      "outputs": [],
      "stateMutability": "nonpayable",
      "type": "function"
    },
    {
      "inputs": [
        {
          "internalType": "bytes4",
          "name": "interfaceId",
          "type": "bytes4"
        }
      ],
      "name": "supportsInterface",
      "outputs": [
        {
          "internalType": "bool",
          "name": "",
          "type": "bool"
        }
      ],
      "stateMutability": "view",
      "type": "function"
    },
    {
      "inputs": [],
      "name": "symbol",
      "outputs": [
        {
          "internalType": "string",
          "name": "",
          "type": "string"
        }
      ],
      "stateMutability": "view",
      "type": "function"
    },
    {
      "inputs": [
        {
          "internalType": "uint256",
          "name": "tokenId",
          "type": "uint256"
        }
      ],
      "name": "tokenURI",
      "outputs": [
        {
          "internalType": "string",
          "name": "",
          "type": "string"
        }
      ],
      "stateMutability": "view",
      "type": "function"
    },
    {
      "inputs": [
        {
          "internalType": "address",
          "name": "from",
          "type": "address"
        },
        {
          "internalType": "address",
          "name": "to",
          "type": "address"
        },
        {
          "internalType": "uint256",
          "name": "tokenId",
          "type": "uint256"
        }
      ],
      "name": "transferFrom",
      "outputs": [],
      "stateMutability": "nonpayable",
      "type": "function"
    },
    {
      "inputs": [
        {
          "internalType": "address",
          "name": "newOwner",
          "type": "address"
        }
      ],
      "name": "transferOwnership",
      "outputs": [],
      "stateMutability": "nonpayable",
      "type": "function"
    }
  ],
  "bytecode": "0x608060405234801561000f575f5ffd5b5060405161174e38038061174e83398101604081905261002e916101a8565b3385855f61003c83826102e3565b50600161004982826102e3565b5050506001600160a01b03811661007957604051631e4fbdf760e01b81525f600482015260240160405180910390fd5b610082816100ba565b50600a80546001600160a01b0319166001600160a01b038516179055600b82905560086100af82826102e3565b50505050505061039d565b600780546001600160a01b038381166001600160a01b0319831681179093556040519116919082907f8be0079c531659141344cd1fd0a4f28419497f9722a3daafe3b4186f6b6457e0905f90a35050565b634e487b7160e01b5f52604160045260245ffd5b5f82601f83011261012e575f5ffd5b81516001600160401b038111156101475761014761010b565b604051601f8201601f19908116603f011681016001600160401b03811182821017156101755761017561010b565b60405281815283820160200185101561018c575f5ffd5b8160208501602083015e5f918101602001919091529392505050565b5f5f5f5f5f60a086880312156101bc575f5ffd5b85516001600160401b038111156101d1575f5ffd5b6101dd8882890161011f565b602088015190965090506001600160401b038111156101fa575f5ffd5b6102068882890161011f565b604088015190955090506001600160a01b0381168114610224575f5ffd5b6060870151608088015191945092506001600160401b03811115610246575f5ffd5b6102528882890161011f565b9150509295509295909350565b600181811c9082168061027357607f821691505b60208210810361029157634e487b7160e01b5f52602260045260245ffd5b50919050565b601f8211156102de57805f5260205f20601f840160051c810160208510156102bc5750805b601f840160051c820191505b818110156102db575f81556001016102c8565b50505b505050565b81516001600160401b038111156102fc576102fc61010b565b6103108161030a845461025f565b84610297565b6020601f821160018114610342575f831561032b5750848201515b5f19600385901b1c1916600184901b1784556102db565b5f84815260208120601f198516915b828110156103715787850151825560209485019460019092019101610351565b508482101561038e57868401515f19600387901b60f8161c191681555b50505050600190811b01905550565b6113a4806103aa5f395ff3fe608060405234801561000f575f5ffd5b506004361061011c575f3560e01c80636352211e116100a9578063a22cb4651161006e578063a22cb4651461023c578063b88d4fde1461024f578063c87b56dd14610262578063e985e9c514610275578063f2fde38b14610288575f5ffd5b80636352211e146101f557806370a0823114610208578063715018a61461021b5780638da5cb5b1461022357806395d89b4114610234575f5ffd5b80631249c58b116100ef5780631249c58b1461019d57806313966db5146101a557806323b872dd146101bc5780633013ce29146101cf57806342842e0e146101e2575f5ffd5b806301ffc9a71461012057806306fdde0314610148578063081812fc1461015d578063095ea7b314610188575b5f5ffd5b61013361012e366004611009565b61029b565b60405190151581526020015b60405180910390f35b6101506102c5565b60405161013f9190611052565b61017061016b366004611064565b610354565b6040516001600160a01b03909116815260200161013f565b61019b610196366004611096565b61037b565b005b61019b61038a565b6101ae600b5481565b60405190815260200161013f565b61019b6101ca3660046110be565b6104c7565b600a54610170906001600160a01b031681565b61019b6101f03660046110be565b610550565b610170610203366004611064565b61056f565b6101ae6102163660046110f8565b610579565b61019b6105be565b6007546001600160a01b0316610170565b6101506105d1565b61019b61024a36600461111e565b6105e0565b61019b61025d366004611167565b6105eb565b610150610270366004611064565b610603565b610133610283366004611244565b610702565b61019b6102963660046110f8565b61072f565b5f6001600160e01b03198216632483248360e11b14806102bf57506102bf8261076c565b92915050565b60605f80546102d390611275565b80601f01602080910402602001604051908101604052809291908181526020018280546102ff90611275565b801561034a5780601f106103215761010080835404028352916020019161034a565b820191905f5260205f20905b81548152906001019060200180831161032d57829003601f168201915b5050505050905090565b5f61035e826107bb565b505f828152600460205260409020546001600160a01b03166102bf565b6103868282336107f3565b5050565b600a546001600160a01b03166323b872dd336103ae6007546001600160a01b031690565b600b546040516001600160e01b031960e086901b1681526001600160a01b03938416600482015292909116602483015260448201526064016020604051808303815f875af1158015610402573d5f5f3e3d5ffd5b505050506040513d601f19601f8201168201806040525081019061042691906112ad565b61046e5760405162461bcd60e51b8152602060048201526014602482015273151bdad95b881c185e5b595b9d0819985a5b195960621b60448201526064015b60405180910390fd5b60098054905f61047d836112c8565b909155505060095461048f3382610800565b60405181815233907f4cc0a9c4a99ddc700de1af2c9f916a7cbfdb71f14801ccff94061ad1ef8a80409060200160405180910390a250565b6001600160a01b0382166104f057604051633250574960e11b81525f6004820152602401610465565b5f6104fc838333610819565b9050836001600160a01b0316816001600160a01b03161461054a576040516364283d7b60e01b81526001600160a01b0380861660048301526024820184905282166044820152606401610465565b50505050565b61056a83838360405180602001604052805f8152506105eb565b505050565b5f6102bf826107bb565b5f6001600160a01b0382166105a3576040516322718ad960e21b81525f6004820152602401610465565b506001600160a01b03165f9081526003602052604090205490565b6105c66108a2565b6105cf5f6108cf565b565b6060600180546102d390611275565b610386338383610920565b6105f68484846104c7565b61054a33858585856109be565b606061060e826107bb565b505f828152600660205260408120805461062790611275565b80601f016020809104026020016040519081016040528092919081815260200182805461065390611275565b801561069e5780601f106106755761010080835404028352916020019161069e565b820191905f5260205f20905b81548152906001019060200180831161068157829003601f168201915b505050505090505f6106ae610ae6565b905080515f036106bf575092915050565b8151156106f15780826040516020016106d9929190611303565b60405160208183030381529060405292505050919050565b6106fa84610af5565b949350505050565b6001600160a01b039182165f90815260056020908152604080832093909416825291909152205460ff1690565b6107376108a2565b6001600160a01b03811661076057604051631e4fbdf760e01b81525f6004820152602401610465565b610769816108cf565b50565b5f6001600160e01b031982166380ac58cd60e01b148061079c57506001600160e01b03198216635b5e139f60e01b145b806102bf57506301ffc9a760e01b6001600160e01b03198316146102bf565b5f818152600260205260408120546001600160a01b0316806102bf57604051637e27328960e01b815260048101849052602401610465565b61056a8383836001610b5a565b610386828260405180602001604052805f815250610c5e565b5f5f610826858585610c75565b90506001600160a01b0381161580159061084857506001600160a01b03851615155b156106fa57846001600160a01b0316816001600160a01b03167f209eb5082bc3bcbd509ae679a680b3bb2a11b77fea542a93e205020af76529fc8660405161089291815260200190565b60405180910390a3949350505050565b6007546001600160a01b031633146105cf5760405163118cdaa760e01b8152336004820152602401610465565b600780546001600160a01b038381166001600160a01b0319831681179093556040519116919082907f8be0079c531659141344cd1fd0a4f28419497f9722a3daafe3b4186f6b6457e0905f90a35050565b6001600160a01b03821661095257604051630b61174360e31b81526001600160a01b0383166004820152602401610465565b6001600160a01b038381165f81815260056020908152604080832094871680845294825291829020805460ff191686151590811790915591519182527f17307eab39ab6107e8899845ad3d59bd9653f200f220920489ca2b5937696c31910160405180910390a3505050565b6001600160a01b0383163b15610adf57604051630a85bd0160e11b81526001600160a01b0384169063150b7a0290610a00908890889087908790600401611317565b6020604051808303815f875af1925050508015610a3a575060408051601f3d908101601f19168201909252610a3791810190611353565b60015b610aa1573d808015610a67576040519150601f19603f3d011682016040523d82523d5f602084013e610a6c565b606091505b5080515f03610a9957604051633250574960e11b81526001600160a01b0385166004820152602401610465565b805160208201fd5b6001600160e01b03198116630a85bd0160e11b14610add57604051633250574960e11b81526001600160a01b0385166004820152602401610465565b505b5050505050565b6060600880546102d390611275565b6060610b00826107bb565b505f610b0a610ae6565b90505f815111610b285760405180602001604052805f815250610b53565b80610b3284610d67565b604051602001610b43929190611303565b6040516020818303038152906040525b9392505050565b8080610b6e57506001600160a01b03821615155b15610c2f575f610b7d846107bb565b90506001600160a01b03831615801590610ba95750826001600160a01b0316816001600160a01b031614155b8015610bbc5750610bba8184610702565b155b15610be55760405163a9fbf51f60e01b81526001600160a01b0384166004820152602401610465565b8115610c2d5783856001600160a01b0316826001600160a01b03167f8c5be1e5ebec7d5bd14f71427d1e84f3dd0314c0f7b2291e5b200ac8c7c3b92560405160405180910390a45b505b50505f90815260046020526040902080546001600160a01b0319166001600160a01b0392909216919091179055565b610c688383610df7565b61056a335f8585856109be565b5f828152600260205260408120546001600160a01b0390811690831615610ca157610ca1818486610e58565b6001600160a01b03811615610cdb57610cbc5f855f5f610b5a565b6001600160a01b0381165f90815260036020526040902080545f190190555b6001600160a01b03851615610d09576001600160a01b0385165f908152600360205260409020805460010190555b5f8481526002602052604080822080546001600160a01b0319166001600160a01b0389811691821790925591518793918516917fddf252ad1be2c89b69c2b068fc378daa952ba7f163c4a11628f55a4df523b3ef91a4949350505050565b60605f610d7383610ebc565b60010190505f8167ffffffffffffffff811115610d9257610d92611153565b6040519080825280601f01601f191660200182016040528015610dbc576020820181803683370190505b5090508181016020015b5f19016f181899199a1a9b1b9c1cb0b131b232b360811b600a86061a8153600a8504945084610dc657509392505050565b6001600160a01b038216610e2057604051633250574960e11b81525f6004820152602401610465565b5f610e2c83835f610819565b90506001600160a01b0381161561056a576040516339e3563760e11b81525f6004820152602401610465565b610e63838383610f93565b61056a576001600160a01b038316610e9157604051637e27328960e01b815260048101829052602401610465565b60405163177e802f60e01b81526001600160a01b038316600482015260248101829052604401610465565b5f8072184f03e93ff9f4daa797ed6e38ed64bf6a1f0160401b8310610efa5772184f03e93ff9f4daa797ed6e38ed64bf6a1f0160401b830492506040015b6d04ee2d6d415b85acef81000000008310610f26576d04ee2d6d415b85acef8100000000830492506020015b662386f26fc100008310610f4457662386f26fc10000830492506010015b6305f5e1008310610f5c576305f5e100830492506008015b6127108310610f7057612710830492506004015b60648310610f82576064830492506002015b600a83106102bf5760010192915050565b5f6001600160a01b038316158015906106fa5750826001600160a01b0316846001600160a01b03161480610fcc5750610fcc8484610702565b806106fa5750505f908152600460205260409020546001600160a01b03908116911614919050565b6001600160e01b031981168114610769575f5ffd5b5f60208284031215611019575f5ffd5b8135610b5381610ff4565b5f81518084528060208401602086015e5f602082860101526020601f19601f83011685010191505092915050565b602081525f610b536020830184611024565b5f60208284031215611074575f5ffd5b5035919050565b80356001600160a01b0381168114611091575f5ffd5b919050565b5f5f604083850312156110a7575f5ffd5b6110b08361107b565b946020939093013593505050565b5f5f5f606084860312156110d0575f5ffd5b6110d98461107b565b92506110e76020850161107b565b929592945050506040919091013590565b5f60208284031215611108575f5ffd5b610b538261107b565b8015158114610769575f5ffd5b5f5f6040838503121561112f575f5ffd5b6111388361107b565b9150602083013561114881611111565b809150509250929050565b634e487b7160e01b5f52604160045260245ffd5b5f5f5f5f6080858703121561117a575f5ffd5b6111838561107b565b93506111916020860161107b565b925060408501359150606085013567ffffffffffffffff8111156111b3575f5ffd5b8501601f810187136111c3575f5ffd5b803567ffffffffffffffff8111156111dd576111dd611153565b604051601f8201601f19908116603f0116810167ffffffffffffffff8111828210171561120c5761120c611153565b604052818152828201602001891015611223575f5ffd5b816020840160208301375f6020838301015280935050505092959194509250565b5f5f60408385031215611255575f5ffd5b61125e8361107b565b915061126c6020840161107b565b90509250929050565b600181811c9082168061128957607f821691505b6020821081036112a757634e487b7160e01b5f52602260045260245ffd5b50919050565b5f602082840312156112bd575f5ffd5b8151610b5381611111565b5f600182016112e557634e487b7160e01b5f52601160045260245ffd5b5060010190565b5f81518060208401855e5f93019283525090919050565b5f6106fa61131183866112ec565b846112ec565b6001600160a01b03858116825284166020820152604081018390526080606082018190525f9061134990830184611024565b9695505050505050565b5f60208284031215611363575f5ffd5b8151610b5381610ff456fea2646970667358221220534e3736f17a6464f3f64787f261f287e192941c383cadec4fe099baf0b7257364736f6c634300081c0033",
  "linkReferences": {},
  "deployedLinkReferences": {},
  "immutableReferences": {},
  "inputSourceName": "project/contracts/NFT.sol",
  "buildInfoId": "solc-0_8_28-6f73789794ca702df8dcdd9c16f433a8ed57be01"
}